{
  "contractName": "Swap",
  "abi": [
    {
      "inputs": [
        {
          "internalType": "contract Token",
          "name": "_token",
          "type": "address"
        }
      ],
      "stateMutability": "nonpayable",
      "type": "constructor"
    },
    {
      "inputs": [],
      "name": "name",
      "outputs": [
        {
          "internalType": "string",
          "name": "",
          "type": "string"
        }
      ],
      "stateMutability": "view",
      "type": "function"
    },
    {
      "inputs": [],
      "name": "token",
      "outputs": [
        {
          "internalType": "contract Token",
          "name": "",
          "type": "address"
        }
      ],
      "stateMutability": "view",
      "type": "function"
    },
    {
      "inputs": [],
      "name": "buyToken",
      "outputs": [
        {
          "internalType": "bool",
          "name": "result",
          "type": "bool"
        }
      ],
      "stateMutability": "payable",
      "type": "function"
    }
  ],
  "bytecode": "0x60806040526040518060400160405280601081526020017f6d79546f6b656e204574682073776170000000000000000000000000000000008152506000908051906020019061004f9291906100c5565b5034801561005c57600080fd5b50604051610739380380610739833981810160405281019061007e919061017d565b80600160006101000a81548173ffffffffffffffffffffffffffffffffffffffff021916908373ffffffffffffffffffffffffffffffffffffffff16021790555050610262565b8280546100d1906101ea565b90600052602060002090601f0160209004810192826100f3576000855561013a565b82601f1061010c57805160ff191683800117855561013a565b8280016001018555821561013a579182015b8281111561013957825182559160200191906001019061011e565b5b509050610147919061014b565b5090565b5b8082111561016457600081600090555060010161014c565b5090565b6000815190506101778161024b565b92915050565b60006020828403121561018f57600080fd5b600061019d84828501610168565b91505092915050565b60006101b1826101ca565b9050919050565b60006101c3826101a6565b9050919050565b600073ffffffffffffffffffffffffffffffffffffffff82169050919050565b6000600282049050600182168061020257607f821691505b602082108114156102165761021561021c565b5b50919050565b7f4e487b7100000000000000000000000000000000000000000000000000000000600052602260045260246000fd5b610254816101b8565b811461025f57600080fd5b50565b6104c8806102716000396000f3fe6080604052600436106100345760003560e01c806306fdde0314610039578063a482171914610064578063fc0c546a14610082575b600080fd5b34801561004557600080fd5b5061004e6100ad565b60405161005b919061032c565b60405180910390f35b61006c61013b565b60405161007991906102f6565b60405180910390f35b34801561008e57600080fd5b506100976101f4565b6040516100a49190610311565b60405180910390f35b600080546100ba90610409565b80601f01602080910402602001604051908101604052809291908181526020018280546100e690610409565b80156101335780601f1061010857610100808354040283529160200191610133565b820191906000526020600020905b81548152906001019060200180831161011657829003601f168201915b505050505081565b6000600160009054906101000a900473ffffffffffffffffffffffffffffffffffffffff1673ffffffffffffffffffffffffffffffffffffffff1663a9059cbb33346040518363ffffffff1660e01b815260040161019a9291906102cd565b602060405180830381600087803b1580156101b457600080fd5b505af11580156101c8573d6000803e3d6000fd5b505050506040513d601f19601f820116820180604052508101906101ec919061022f565b506001905090565b600160009054906101000a900473ffffffffffffffffffffffffffffffffffffffff1681565b6000815190506102298161047b565b92915050565b60006020828403121561024157600080fd5b600061024f8482850161021a565b91505092915050565b6102618161036a565b82525050565b6102708161037c565b82525050565b61027f816103b2565b82525050565b60006102908261034e565b61029a8185610359565b93506102aa8185602086016103d6565b6102b38161046a565b840191505092915050565b6102c7816103a8565b82525050565b60006040820190506102e26000830185610258565b6102ef60208301846102be565b9392505050565b600060208201905061030b6000830184610267565b92915050565b60006020820190506103266000830184610276565b92915050565b600060208201905081810360008301526103468184610285565b905092915050565b600081519050919050565b600082825260208201905092915050565b600061037582610388565b9050919050565b60008115159050919050565b600073ffffffffffffffffffffffffffffffffffffffff82169050919050565b6000819050919050565b60006103bd826103c4565b9050919050565b60006103cf82610388565b9050919050565b60005b838110156103f45780820151818401526020810190506103d9565b83811115610403576000848401525b50505050565b6000600282049050600182168061042157607f821691505b602082108114156104355761043461043b565b5b50919050565b7f4e487b7100000000000000000000000000000000000000000000000000000000600052602260045260246000fd5b6000601f19601f8301169050919050565b6104848161037c565b811461048f57600080fd5b5056fea264697066735822122033b8fd98b1083c16e9abb2ebdcf13cc7f928576b9d1bf05baafa1cba60ac246c64736f6c63430008000033",
  "immutableReferences": {},
  "source": "// SPDX-License-Identifier: UNLICENSED\r\n\r\npragma solidity ^0.8.0;\r\n\r\nimport \"./Token.sol\";\r\n\r\ncontract Swap{\r\n\r\n    string public name = \"myToken Eth swap\";\r\n    Token public token;\r\n\r\n    constructor(Token _token){\r\n         token = _token;\r\n    }\r\n\r\n    function buyToken() public payable returns(bool result)  {\r\n        \r\n        token.transfer(msg.sender, msg.value);\r\n\r\n        return true;\r\n    }\r\n}",
  "sourcePath": "D:/swap_token/contracts/Swap.sol",
  "compiler": {
    "name": "solc",
    "version": "0.8.0+commit.c7dfd78e.Emscripten.clang"
  },
  "schemaVersion": "3.4.1",
  "updatedAt": "2021-11-11T03:10:41.850Z",
  "devdoc": {
    "kind": "dev",
    "methods": {},
    "version": 1
  },
  "userdoc": {
    "kind": "user",
    "methods": {},
    "version": 1
  }
}