{
  "contractName": "Swap",
  "abi": [
    {
      "inputs": [
        {
          "internalType": "contract Token",
          "name": "_token",
          "type": "address"
        }
      ],
      "stateMutability": "nonpayable",
      "type": "constructor"
    },
    {
      "inputs": [],
      "name": "name",
      "outputs": [
        {
          "internalType": "string",
          "name": "",
          "type": "string"
        }
      ],
      "stateMutability": "view",
      "type": "function",
      "constant": true
    },
    {
      "inputs": [],
      "name": "token",
      "outputs": [
        {
          "internalType": "contract Token",
          "name": "",
          "type": "address"
        }
      ],
      "stateMutability": "view",
      "type": "function",
      "constant": true
    },
    {
      "inputs": [],
      "name": "buyToken",
      "outputs": [
        {
          "internalType": "bool",
          "name": "result",
          "type": "bool"
        }
      ],
      "stateMutability": "payable",
      "type": "function",
      "payable": true
    },
    {
      "inputs": [],
      "name": "sellToken",
      "outputs": [
        {
          "internalType": "bool",
          "name": "result",
          "type": "bool"
        }
      ],
      "stateMutability": "payable",
      "type": "function",
      "payable": true
    }
  ],
  "bytecode": "0x60806040526040518060400160405280601081526020017f6d79546f6b656e204574682073776170000000000000000000000000000000008152506000908051906020019061004f9291906100ca565b50606460025534801561006157600080fd5b506040516108ee3803806108ee83398181016040528101906100839190610182565b80600160006101000a81548173ffffffffffffffffffffffffffffffffffffffff021916908373ffffffffffffffffffffffffffffffffffffffff16021790555050610267565b8280546100d6906101ef565b90600052602060002090601f0160209004810192826100f8576000855561013f565b82601f1061011157805160ff191683800117855561013f565b8280016001018555821561013f579182015b8281111561013e578251825591602001919060010190610123565b5b50905061014c9190610150565b5090565b5b80821115610169576000816000905550600101610151565b5090565b60008151905061017c81610250565b92915050565b60006020828403121561019457600080fd5b60006101a28482850161016d565b91505092915050565b60006101b6826101cf565b9050919050565b60006101c8826101ab565b9050919050565b600073ffffffffffffffffffffffffffffffffffffffff82169050919050565b6000600282049050600182168061020757607f821691505b6020821081141561021b5761021a610221565b5b50919050565b7f4e487b7100000000000000000000000000000000000000000000000000000000600052602260045260246000fd5b610259816101bd565b811461026457600080fd5b50565b610678806102766000396000f3fe60806040526004361061003f5760003560e01c806306fdde03146100445780639769f0b01461006f578063a48217191461008d578063fc0c546a146100ab575b600080fd5b34801561005057600080fd5b506100596100d6565b6040516100669190610453565b60405180910390f35b610077610164565b604051610084919061041d565b60405180910390f35b61009561021f565b6040516100a2919061041d565b60405180910390f35b3480156100b757600080fd5b506100c06102e4565b6040516100cd9190610438565b60405180910390f35b600080546100e39061058a565b80601f016020809104026020016040519081016040528092919081815260200182805461010f9061058a565b801561015c5780601f106101315761010080835404028352916020019161015c565b820191906000526020600020905b81548152906001019060200180831161013f57829003601f168201915b505050505081565b6000600160009054906101000a900473ffffffffffffffffffffffffffffffffffffffff1673ffffffffffffffffffffffffffffffffffffffff166323b872dd3330346040518463ffffffff1660e01b81526004016101c5939291906103bd565b602060405180830381600087803b1580156101df57600080fd5b505af11580156101f3573d6000803e3d6000fd5b505050506040513d601f19601f82011682018060405250810190610217919061031f565b506001905090565b6000600160009054906101000a900473ffffffffffffffffffffffffffffffffffffffff1673ffffffffffffffffffffffffffffffffffffffff1663a9059cbb3360643461026d9190610491565b6040518363ffffffff1660e01b815260040161028a9291906103f4565b602060405180830381600087803b1580156102a457600080fd5b505af11580156102b8573d6000803e3d6000fd5b505050506040513d601f19601f820116820180604052508101906102dc919061031f565b506001905090565b600160009054906101000a900473ffffffffffffffffffffffffffffffffffffffff1681565b6000815190506103198161062b565b92915050565b60006020828403121561033157600080fd5b600061033f8482850161030a565b91505092915050565b610351816104eb565b82525050565b610360816104fd565b82525050565b61036f81610533565b82525050565b600061038082610475565b61038a8185610480565b935061039a818560208601610557565b6103a38161061a565b840191505092915050565b6103b781610529565b82525050565b60006060820190506103d26000830186610348565b6103df6020830185610348565b6103ec60408301846103ae565b949350505050565b60006040820190506104096000830185610348565b61041660208301846103ae565b9392505050565b60006020820190506104326000830184610357565b92915050565b600060208201905061044d6000830184610366565b92915050565b6000602082019050818103600083015261046d8184610375565b905092915050565b600081519050919050565b600082825260208201905092915050565b600061049c82610529565b91506104a783610529565b9250817fffffffffffffffffffffffffffffffffffffffffffffffffffffffffffffffff04831182151516156104e0576104df6105bc565b5b828202905092915050565b60006104f682610509565b9050919050565b60008115159050919050565b600073ffffffffffffffffffffffffffffffffffffffff82169050919050565b6000819050919050565b600061053e82610545565b9050919050565b600061055082610509565b9050919050565b60005b8381101561057557808201518184015260208101905061055a565b83811115610584576000848401525b50505050565b600060028204905060018216806105a257607f821691505b602082108114156105b6576105b56105eb565b5b50919050565b7f4e487b7100000000000000000000000000000000000000000000000000000000600052601160045260246000fd5b7f4e487b7100000000000000000000000000000000000000000000000000000000600052602260045260246000fd5b6000601f19601f8301169050919050565b610634816104fd565b811461063f57600080fd5b5056fea264697066735822122054f138ba25987ad026a5c8fb501d604e66f46c0e7049027f7e816de44f68e9b264736f6c63430008000033",
  "immutableReferences": {},
  "source": "// SPDX-License-Identifier: UNLICENSED\r\n\r\npragma solidity ^0.8.0;\r\n\r\nimport \"./Token.sol\";\r\n\r\ncontract Swap{\r\n\r\n    string public name = \"myToken Eth swap\";\r\n    Token public token;\r\n\r\n    uint256 rate = 100;\r\n\r\n    constructor(Token _token){\r\n         token = _token;\r\n    }\r\n\r\n    function buyToken() public payable returns(bool result)  {\r\n        \r\n        token.transfer(msg.sender, msg.value * 100);\r\n        \r\n        return true;\r\n    }\r\n\r\n    function sellToken() public payable returns(bool result)  {\r\n        \r\n        token.transferFrom(msg.sender, address(this), msg.value);\r\n        \r\n        return true;\r\n    }\r\n}",
  "sourcePath": "D:/swap_token/contracts/Swap.sol",
  "compiler": {
    "name": "solc",
    "version": "0.8.0+commit.c7dfd78e.Emscripten.clang"
  },
  "schemaVersion": "3.4.1",
  "updatedAt": "2021-11-16T02:32:51.039Z",
  "networkType": "ethereum",
  "devdoc": {
    "kind": "dev",
    "methods": {},
    "version": 1
  },
  "userdoc": {
    "kind": "user",
    "methods": {},
    "version": 1
  }
}